{
  "timestamp": "2025-09-08T18:11:59.959Z",
  "network": "TellUrStori L1 (Chain ID: 507)",
  "contract": "0x4Ac1d98D9cEF99EC6546dEd4Bd550b0b287aaD6D",
  "results": {
    "passed": 12,
    "failed": 2,
    "total": 14,
    "details": [
      {
        "name": "ERC2981 Royalty Standard Support",
        "passed": true,
        "details": ""
      },
      {
        "name": "Pausable Mechanism Available",
        "passed": true,
        "details": ""
      },
      {
        "name": "Ownable Access Control",
        "passed": true,
        "details": ""
      },
      {
        "name": "Batch Size Limits Defined",
        "passed": true,
        "details": ""
      },
      {
        "name": "Tag Limits Defined",
        "passed": true,
        "details": ""
      },
      {
        "name": "Royalty Limits Defined",
        "passed": true,
        "details": ""
      },
      {
        "name": "IPFS CIDv0 Hash Validation (Valid)",
        "passed": true,
        "details": ""
      },
      {
        "name": "IPFS CIDv1 Hash Validation (Valid)",
        "passed": false,
        "details": "nonce has already been used (transaction=\"0x02f904d08201fb0501850ba43b74018308e04a944ac1d98d9cef99ec6546ded4bd550b0b287aad6d80b90464c34ba4ef0000000000000000000000008db97c7cece249c2b98bdc0226cc4c2a57bf52fc0000000000000000000000000000000000000000000000000000000000000001000000000000000000000000000000000000000000000000000000000000008000000000000000000000000000000000000000000000000000000000000004400000000000000000000000000000000000000000000000000000000000000140000000000000000000000000000000000000000000000000000000000000018000000000000000000000000000000000000000000000000000000000000001e000000000000000000000000000000000000000000000000000000000000002400000000000000000000000008db97c7cece249c2b98bdc0226cc4c2a57bf52fc0000000000000000000000000000000000000000000000000000000068bf1c6f00000000000000000000000000000000000000000000000000000000000000b400000000000000000000000000000000000000000000000000000000000002a000000000000000000000000000000000000000000000000000000000000002e000000000000000000000000000000000000000000000000000000000000002ee000000000000000000000000000000000000000000000000000000000000001752656d697841492054657374205354454d204349447631000000000000000000000000000000000000000000000000000000000000000000000000000000002254657374696e6720495046532076616c69646174696f6e2077697468204349447631000000000000000000000000000000000000000000000000000000000000000000000000000000000000000000000000000000000000000000000000003b62616679626569676479727a74357366703775646d37687537367568377932366e6633656675796c71616266336f636c67747179353566627a64690000000000000000000000000000000000000000000000000000000000000000000000003b62616679626569676479727a74357366703775646d37687537367568377932366e6633656675796c71616266336f636c67747179353566627a6469000000000000000000000000000000000000000000000000000000000000000000000000045465737400000000000000000000000000000000000000000000000000000000000000000000000000000000000000000000000000000000000000000000000200000000000000000000000000000000000000000000000000000000000000400000000000000000000000000000000000000000000000000000000000000080000000000000000000000000000000000000000000000000000000000000000772656d6978616900000000000000000000000000000000000000000000000000000000000000000000000000000000000000000000000000000000000000000563696476310000000000000000000000000000000000000000000000000000000000000000000000000000000000000000000000000000000000000000000000c080a0e8a0fe7d82e4baeba2ac814018c1ed27f95470ba9626d9e4b1411f78a3f4c062a07ae7e1e082d5ba39646d7c9dc105b4ab83352c3988e715dac3e2dba138538750\", info={ \"error\": { \"code\": -32000, \"message\": \"nonce too low: next nonce 6, tx nonce 5\" } }, code=NONCE_EXPIRED, version=6.15.0)"
      },
      {
        "name": "IPFS Invalid Hash Rejection",
        "passed": true,
        "details": ""
      },
      {
        "name": "ERC2981 Royalty Calculation",
        "passed": true,
        "details": ""
      },
      {
        "name": "Pause/Unpause Functionality",
        "passed": false,
        "details": "nonce has already been used (transaction=\"0x02f86d8201fb0501850ba43b740182bcea944ac1d98d9cef99ec6546ded4bd550b0b287aad6d80848456cb59c001a0a42255a03be4a10a3caaa08b84e4887ece805e0bcfd40dd642a72a55c5434252a0741e8a682f2cb72b0bdf2ab0a19955562e70e1a2f21a9625600a24019c11060d\", info={ \"error\": { \"code\": -32000, \"message\": \"nonce too low: next nonce 6, tx nonce 5\" } }, code=NONCE_EXPIRED, version=6.15.0)"
      },
      {
        "name": "Batch Size Limit Enforcement",
        "passed": true,
        "details": ""
      },
      {
        "name": "Duration Validation",
        "passed": true,
        "details": ""
      },
      {
        "name": "Royalty Percentage Validation",
        "passed": true,
        "details": ""
      }
    ]
  },
  "remixAIStatus": "⚠️ PARTIAL",
  "featuresValidated": [
    "ERC2981 Royalty Standard",
    "Emergency Pause Mechanism",
    "IPFS Hash Validation (CIDv0 & CIDv1)",
    "Batch Operation Limits",
    "Input Validation (Duration, Royalty)",
    "Access Control (Ownable)",
    "Custom Error Handling",
    "Reentrancy Protection"
  ]
}